010010101ANTIOQUIA   MEDELLIN                      SEC. ESC. LA ESPERANZA NO 2             4000049750000743900003201COMUNA 1 POPULAR              
010250000ANTIOQUIA   ANGOSTURA                     PUESTO CABECERA MUNICIPAL               40000400300004431000022                                
010289916ANTIOQUIA   ANORI                         LA CASITA                               40000009000000139000001                                
010350107ANTIOQUIA   APARTADO                      HOGAR INFANTIL LOS GIRASOLES            4000024080000203500001202COMUNA 2 OCHO DE FEBRERO      
